:100000000C94B7120C94DF120C94DF120C94DF12D4
:100010000C94DF120C94DF120C94DF120C94DF129C
:100020000C94DF120C94DF120C94DF120C94DF128C
:100030000C94DF120C94DF120C94DF120C94DF127C
:100040000C94DF120C948E310C94DF120C94DF129E
:100050000C94DF120C94DF120C94DF120C944F30CE
:100060000C94DF120C94DF120C94DF120C94DF124C
:100070000C94DF120C94DF120C94DF120C94DF123C
:100080000C9499300C94DF120C94DF120C94DF1254
:100090000C94DF120C94DF120C94DF120C94DF121C
:1000A0000C94DF120C94DF120C94DF12D5F08D1437
:1000B000A1C881CFD9F1AF2000DB20C0A0D9218118
:1000C000FFA800A800A83F08107F7F7F7F7F7F7F69
:1000D0007FF0F0F0F0F0F0F0F07F7F7F7F7F7F7FA8
:1000E0007FF0F0F0F0F0F0F0F00000000000000011
:1000F00000F0F0F0F0F0F0F0F0FFFFFFFFFFFFFF87
:10010000FFE0E0E0E0E0E0E0E0FFFFFFFFFFFFFFF7
:10011000FFE0E0E0E0E0E0E0E000000000000000E0
:1001200000E0E0E0E0E0E0E0E0FFFFFFFFFFFFFFD6
:10013000FFC1C1C1C1C1C1C1C1FFFFFFFFFFFFFFBF
:10014000FFC1C1C1C1C1C1C1C100000000000000A8
:1001500000C0C0C0C0C0C0C0C008107F7F7F7F7F0C
:100160007F7F00F0F0F0F0F0F0F0F07F7F7F7F7F96
:100170007F7F00F0F0F0F0F0F0F0F0000000000001
:10018000000000F0F0F0F0F0F0F0F0FFFFFFFFFFF4
:10019000FFFF00E0E0E0E0E0E0E0E0FFFFFFFFFF66
:1001A000FFFF00E0E0E0E0E0E0E0E0000000000051
:1001B000000000E0E0E0E0E0E0E0E0FFFFFFFFFF44
:1001C000FFFF00C1C1C1C1C1C1C1C0FFFFFFFFFF2F
:1001D000FFFF00C1C1C1C1C1C1C1C000000000001A
:1001E000000000C0C0C0C0C0C0C0C00810007F7FF9
:1001F0007F7F7F7F7FF0F0F0F0F0F0F0F0007F7F06
:100200007F7F7F7F7FF0F0F0F0F0F0F0F0000000F3
:100210000000000000F0F0F0F0F0F0F0F000FFFF60
:10022000FFFFFFFFFFE0E0E0E0E0E0E0E000FFFFD5
:10023000FFFFFFFFFFE0E0E0E0E0E0E0E0000000C3
:100240000000000000E0E0E0E0E0E0E0E000FFFFB0
:10025000FFFFFFFFFFC0C1C1C1C1C1C1C100FFFF9E
:10026000FFFFFFFFFFC0C1C1C1C1C1C1C10000008C
:100270000000000000C0C0C0C0C0C0C0C008100066
:100280007F7F7F7F7F7F00F0F0F0F0F0F0F0F000F4
:100290007F7F7F7F7F7F00F0F0F0F0F0F0F0F000E4
:1002A00000000000000000F0F0F0F0F0F0F0F000CE
:1002B000FFFFFFFFFFFF00E0E0E0E0E0E0E0E00044
:1002C000FFFFFFFFFFFF00E0E0E0E0E0E0E0E00034
:1002D00000000000000000E0E0E0E0E0E0E0E0001E
:1002E000FFFFFFFFFFFF00C0C1C1C1C1C1C1C0000E
:1002F000FFFFFFFFFFFF00C0C1C1C1C1C1C1C000FE
:1003000000000000000000C0C0C0C0C0C0C0C008E5
:1003100008FFFFFFFFFFFFFFFFFFFFFFFFFFFFFFE4
:10032000FF00000000000000000808FFFFFFFFFFC3
:10033000FFFF00FFFFFFFFFFFFFF000000000000C6
:10034000000000080800FFFFFFFFFFFFFF00FFFFA6
:10035000FFFFFFFFFF000000000000000008080092
:10036000FFFFFFFFFFFF0000FFFFFFFFFFFF000099
:100370000000000000000008107EFF7EFF7EFF7E70
:10038000FF7EFF7EFF7EFF00FFF0FFF0FFF0FFF03B
:10039000FFF0FFF0FFF0FFF0FF7EFF7EFF7EFF7EAD
:1003A000FF7EFF7EFF7EFF00FFF0FFF0FFF0FFF01B
:1003B000FFF0FFF0FFF0FFF0FF00FF00FF00FF0085
:1003C000FF00FF00FF00FF00FFF0FFF0FFF0FFF075
:1003D000FFF0FFF0FFF0FFF0FFFCFEFCFEFCFEFC78
:1003E000FEFCFEFCFEFCFE00FEE0FFE0FFE0FFE0A6
:1003F000FFE0FFE0FFE0FFE0FFFCFEFCFEFCFEFC98
:10040000FEFCFEFCFEFCFE00FEE0FFE0FFE0FFE085
:10041000FFE0FFE0FFE0FFE0FF00FE00FE00FE0067
:10042000FE00FE00FE00FE00FEE0FFE0FFE0FFE059
:10043000FFE0FFE0FFE0FFE0FFF8FCF8FCF8FCF86D
:10044000FCF8FCF8FCF8FC00FCC1FFC1FFC1FFC1D7
:10045000FFC1FFC1FFC1FFC0FFF8FCF8FCF8FCF8CA
:10046000FCF8FCF8FCF8FC00FCC1FFC1FFC1FFC1B7
:10047000FFC1FFC1FFC1FFC0FF00FC00FC00FC008A
:10048000FC00FC00FC00FC00FCC0FFC0FFC0FFC083
:10049000FFC0FFC0FFC0FFC0FF0808FEFFFEFFFE59
:1004A000FFFEFFFEFFFEFFFEFF00FFFEFFFEFFFE62
:1004B000FFFEFFFEFFFEFFFEFF00FF00FF00FF004C
:1004C000FF00FF00FF00FF00FF00FFFCFEFCFEFC42
:1004D000FEFCFEFCFEFCFEFCFE00FEFCFEFCFEFC48
:1004E000FEFCFEFCFEFCFEFCFE00FE00FE00FE002C
:1004F000FE00FE00FE00FE00FE00FEF8FCF8FCF828
:10050000FCF8FCF8FCF8FCF8FC00FCF8FCF8FCF843
:10051000FCF8FCF8FCF8FCF8FC00FC00FC00FC001B
:10052000FC00FC00FC00FC00FC00FC08107EFF7ED0
:10053000FF7EFF7EFF7EFF7EFF7EFF7EFF000F00BF
:100540000F000F000F000F000F000F000F7EFF7E47
:10055000FF7EFF7EFF7EFF7EFF7EFF7EFF000F009F
:100560000F000F000F000F000F000F000F00FF0023
:10057000FF00FF00FF00FF00FF00FF00FF000F0073
:100580000F000F000F000F000F000F000F0808FEF4
:10059000FFFEFFFEFFFEFFFEFFFEFFFEFFFEFFFE73
:1005A000FFFEFFFEFFFEFFFEFFFEFFFEFFFEFF0061
:1005B000FF00FF00FF00FF00FF00FF00FF00FFFC47
:1005C000FEFCFEFCFEFCFEFCFEFCFEFCFEFCFEFC5B
:1005D000FEFCFEFCFEFCFEFCFEFCFEFCFEFCFE0047
:1005E000FE00FE00FE00FE00FE00FE00FE00FEF823
:1005F000FCF8FCF8FCF8FCF8FCF8FCF8FCF8FCF85B
:10060000FCF8FCF8FCF8FCF8FCF8FCF8FCF8FC0042
:10061000FC00FC00FC00FC00FC00FC00FC00FC08F2
:100620001000FF7EFF7EFF7EFF7EFF7EFF7EFF7E4F
:10063000FFF0FFF0FFF0FFF0FFF0FFF0FFF0FFF042
:10064000FF00FF7EFF7EFF7EFF7EFF7EFF7EFF7E40
:10065000FFF0FFF0FFF0FFF0FFF0FFF0FFF0FFF022
:10066000FF00FF00FF00FF00FF00FF00FF00FF0092
:10067000FFF0FFF0FFF0FFF0FFF0FFF0FFF0FFF002
:10068000FF00FEFCFEFCFEFCFEFCFEFCFEFCFEFC95
:10069000FEE0FFE0FFE0FFE0FFE0FFE0FFE0FFE063
:1006A000FF00FEFCFEFCFEFCFEFCFEFCFEFCFEFC75
:1006B000FEE0FFE0FFE0FFE0FFE0FFE0FFE0FFE043
:1006C000FF00FE00FE00FE00FE00FE00FE00FE0039
:1006D000FEE0FFE0FFE0FFE0FFE0FFE0FFE0FFE023
:1006E000FF00FCF8FCF8FCF8FCF8FCF8FCF8FCF85F
:1006F000FCC0FFC1FFC1FFC1FFC1FFC1FFC1FFC1FE
:10070000FF00FCF8FCF8FCF8FCF8FCF8FCF8FCF83E
:10071000FCC0FFC1FFC1FFC1FFC1FFC1FFC1FFC1DD
:10072000FF00FC00FC00FC00FC00FC00FC00FC00E6
:10073000FCC0FFC0FFC0FFC0FFC0FFC0FFC0FFC0C4
:10074000FF080800FFFEFFFEFFFEFFFEFFFEFFFEAC
:10075000FFFEFF00FFFEFFFEFFFEFFFEFFFEFFFEAF
:10076000FFFEFF00FF00FF00FF00FF00FF00FF0093
:10077000FF00FF00FEFCFEFCFEFCFEFCFEFCFEFC9F
:10078000FEFCFE00FEFCFEFCFEFCFEFCFEFCFEFC95
:10079000FEFCFE00FE00FE00FE00FE00FE00FE006D
:1007A000FE00FE00FCF8FCF8FCF8FCF8FCF8FCF895
:1007B000FCF8FC00FCF8FCF8FCF8FCF8FCF8FCF891
:1007C000FCF8FC00FC00FC00FC00FC00FC00FC0051
:1007D000FC00FC080800FFFEFFFEFFFEFFFEFFFE20
:1007E000FFFEFF00FF00FFFEFFFEFFFEFFFEFFFE1D
:1007F000FFFEFF00FF00FF00FF00FF00FF00FF0003
:10080000FF00FF00FF00FEFCFEFCFEFCFEFCFEFC09
:10081000FEFCFE00FE00FEFCFEFCFEFCFEFCFEFC00
:10082000FEFCFE00FE00FE00FE00FE00FE00FE00DC
:10083000FE00FE00FE00FCF8FCF8FCF8FCF8FCF8FA
:10084000FCF8FC00FC00FCF8FCF8FCF8FCF8FCF8F8
:10085000FCF8FC00FC00FC00FC00FC00FC00FC00C0
:10086000FC00FC00FC081000FF7EFF7EFF7EFF7E88
:10087000FF7EFF7EFF00FFF0FFF0FFF0FFF0FFF0D4
:10088000FFF0FFF0FFF0FF00FF7EFF7EFF7EFF7EA8
:10089000FF7EFF7EFF00FFF0FFF0FFF0FFF0FFF0B4
:1008A000FFF0FFF0FFF0FF00FF00FF00FF00FF0080
:1008B000FF00FF00FF00FFF0FFF0FFF0FFF0FFF090
:1008C000FFF0FFF0FFF0FF00FEFCFEFCFEFCFEFC74
:1008D000FEFCFEFCFE00FEE0FFE0FFE0FFE0FFE0CC
:1008E000FFE0FFE0FFE0FF00FEFCFEFCFEFCFEFC84
:1008F000FEFCFEFCFE00FEE0FFE0FFE0FFE0FFE0AC
:10090000FFE0FFE0FFE0FF00FE00FE00FE00FE0053
:10091000FE00FE00FE00FEE0FFE0FFE0FFE0FFE083
:10092000FFE0FFE0FFE0FF00FCF8FCF8FCF8FCF85B
:10093000FCF8FCF8FC00FCC0FFC1FFC1FFC1FFC117
:10094000FFC1FFC1FFC0FF00FCF8FCF8FCF8FCF899
:10095000FCF8FCF8FC00FCC0FFC1FFC1FFC1FFC1F7
:10096000FFC1FFC1FFC0FF00FC00FC00FC00FC0059
:10097000FC00FC00FC00FCC0FFC0FFC0FFC0FFC0CB
:10098000FFC0FFC0FFC0FF0810003C3CFE7EFFBE62
:10099000FFBEFF7EFF3C7E003C000101030103001F
:1009A000010003020702070002003C3CFE7EFFBE7E
:1009B000FFBEFF7EFF007E003C000101030103003B
:1009C000010003020702070002003C00FE00FF00D6
:1009D000FF00FF00FF007E003C0001000300030059
:1009E000010003000700070002007878FCFCFE7C91
:1009F000FE7CFEFCFE78FC00780004040E040F016F
:100A0000070103020702070002007878FCFCFE7C65
:100A1000FE7CFEFCFE00FC00780004040E040F01C6
:100A2000070103020702070002007800FC00FE0035
:100A3000FE00FE00FE00FC00780004000E000F0027
:100A4000070003000700070002003C3C7E76FFF62B
:100A5000FFF6FFE6FF24FE007C0002020700030011
:100A6000010003020702070002003C007E14FF762B
:100A7000FF76FF66FF24FE007C00020207000300F1
:100A8000010003020702070002003C007E00FF0095
:100A9000FF00FF00FF00FE007C00020007000300D3
:100AA000010003000700070002007878FCECFEEC70
:100AB000FEECFECCFE48FC00F8000000000007053C
:100AC0000F050F010700030000007800FC28FEEC72
:100AD000FEECFECCFE48FC00F8000000000007041D
:100AE0000F040F000700030000007800FC00FE0068
:100AF000FE00FE00FE00FC00F80000000000070001
:100B00000F000F000700030000003C24FE66FFB644
:100B1000FFB6FF66FF247E003C00010103010300D5
:100B2000010003020702070002003C24FE66FFB634
:100B3000FFB6FF66FF247E003C00010103010300B5
:100B4000010003020702070002003C00FE00FF0054
:100B5000FF00FF00FF007E003C00010003000300D7
:100B6000010003000700070002007848FCCCFE6C7F
:100B7000FE6CFECCFE48FC00780004040E040F015D
:100B8000070103020702070002007848FCCCFE6C54
:100B9000FE6CFECCFE48FC00780004040E040F013D
:100BA000070103020702070002007800FC00FE00B4
:100BB000FE00FE00FE00FC00780004000E000F00A6
:100BC000070003000700070002007C24FEE6FFF692
:100BD000FFF6FF76FF3C7E003C00020207020700A2
:100BE000030001000302070002007C24FE66FF767A
:100BF000FF76FF14FF007E003C00020207020700A0
:100C0000030001000302070002007C00FE00FF0059
:100C1000FF00FF00FF007E003C000200070007000D
:100C200003000100030007000200F848FCCCFEECC2
:100C3000FEECFEECFE78FC007800000003010705E6
:100C40000F050F00070000000000F848FCCCFEEC88
:100C5000FEECFE28FE00FC00780000000300070404
:100C60000F040F00070000000000F800FC00FE0069
:100C7000FE00FE00FE00FC007800000003000700FC
:100C80000F000F000700000000003C3C7E7E7F3E0E
:100C90007F3E7F7E7F3C7E003C0004040E040E02FB
:100CA00006020E081E081C0008003C3C7E7E7F3EAB
:100CB0007F3E7F7E7F007E003C0004040E040E0217
:100CC00006020E081E081C0008003C007E007F0083
:100CD0007F007F007F007E003C0004000E000E00BD
:100CE00006000E001E001C0008003C3C7E7E7F3E7D
:100CF0007F3E7F7E7F3C7E003C0008081C081E0271
:100D00000E0206040E040E0004003C3C7E7E7F3E74
:100D10007F3E7F7E7F007E003C0008081C081E028C
:100D20000E0206040E040E0004003C007E007F004C
:100D30007F007F007F007E003C0008001C001E003A
:100D40000E0006000E000E0004003C3C7E767F760E
:100D50007F767F667F247E007C0008081C000E02E0
:100D600006020E0A1E081E0008003C007E147F7654
:100D70007F767F667F247E007C0008081C000E00C2
:100D800006000E081E081E0008003C007E007F00C2
:100D90007F007F007F007E007C0008001C000E00AA
:100DA00006000E001E001E0008003C3C7E767F768A
:100DB0007F767F667F247E007C00000000000E0AA4
:100DC0001E0A1E020E00060000003C007E147F7604
:100DD0007F767F667F247E007C00000000000E0886
:100DE0001E081E000E00060000003C007E007F0072
:100DF0007F007F007F007E007C00000000000E006E
:100E00001E001E000E00060000003C247E667F3699
:100E10007F367F667F247E003C0004040E040E02B1
:100E200006020E081E081C0008003C247E667F3661
:100E30007F367F667F247E003C0004040E040E0291
:100E400006020E081E081C0008003C007E007F0001
:100E50007F007F007F007E003C0004000E000E003B
:100E600006000E001E001C0008003C247E667F3633
:100E70007F367F667F247E003C0008081C081E0227
:100E80000E0206040E040E0004003C247E667F362B
:100E90007F367F667F247E003C0008081C081E0207
:100EA0000E0206040E040E0004003C007E007F00CB
:100EB0007F007F007F007E003C0008001C001E00B9
:100EC0000E0006000E000E0004007C247E667F7675
:100ED0007F767F767F3C7E003C0008081E0A1E025B
:100EE0000E0206000E081C0008007C247E667F7639
:100EF0007F767F147F007E003C0008081E081E00DD
:100F00000E0006000E081C0008007C007E007F001A
:100F10007F007F007F007E003C0008001E001E0056
:100F20000E0006000E001C0008007C247E667F7602
:100F30007F767F767F3C7E003C00000006020E0A32
:100F40001E0A1E000E00000000007C247E667F76D4
:100F50007F767F147F007E003C00000006000E08B4
:100F60001E081E000E00000000007C007E007F00B6
:100F70007F007F007F007E003C00000006000E0026
:100F80001E001E000E00000000007070F8F8FCF853
:100F9000FCFCFEFEFF7EFF007E000202070207014E
:100FA000030107040F040E0004007030F878FC7889
:100FB000FC3CFE1EFF00FF007E000202070207014C
:100FC000030107040F040E0004007000F800FC0089
:100FD000FC00FE00FF00FF007E000200070007008B
:100FE000030007000F000E000400E0E0F0F0F8F04E
:100FF000F8F8FCFCFEFCFE00FC0008081D091F03BD
:101000000F0307050F040F000400E060F0F0F8F094
:10101000F878FC3CFE00FE00FC0008081D081F02DA
:101020000F0207040F040F000400E000F000F800B6
:10103000F800FC00FE00FE00FC0008001D001F0080
:101040000F0007000F000F0004007E7EFFFEFFFC74
:10105000FEF8FCC8FCF0F800F00004040E000701E4
:10106000030107050F040F0004007E00FF1EFF3C74
:10107000FE78FC48FC30F800F00004040E00070085
:10108000030007040F040F0004007E00FF00FF00B0
:10109000FE00FC00FC00F800F00004000E00070059
:1010A000030007000F000F000400FCFCFEFCFEF82C
:1010B000FCF0F890F8E0F000E000000001010F0BF8
:1010C0001F0B1F030F0103000100FC00FE3CFE7814
:1010D000FCF0F890F860F000E000000001000F085C
:1010E0001F081F000F0003000100FC00FE00FE00AF
:1010F000FC00F800F800F000E000000001000F0024
:101100001F001F000F00030001007070F8C8FCF8FA
:10111000FCFCFECEFF7EFF007E00020207020701FC
:10112000030107040F040E0004007020F840FC7057
:10113000FC78FE4EFF00FF007E000202070207015E
:10114000030107040F040E0004007000F800FC0007
:10115000FC00FE00FF00FF007E0002000700070009
:10116000030007000F000E000400E0E0F090F8F02C
:10117000F8F8FC9CFEFCFE00FC0008081D091F039B
:101180000F0307050F040F000400E040F080F8E0B3
:10119000F8F0FC9CFE00FE00FC0008081D081F0281
:1011A0000F0207040F040F000400E000F000F80035
:1011B000F800FC00FE00FE00FC0008001D001F00FF
:1011C0000F0007000F000F000400F0F0F8C8FCF853
:1011D000FCFCFEFEFF7EFF007E0004040F050F01F5
:1011E0000701030007040E000400F030F848FC7803
:1011F000FC3CFE1EFF00FF007E0004040F040F00F5
:101200000700030007040E000400F000F800FC00D3
:10121000FC00FE00FF00FF007E0004000F000F0036
:101220000700030007000E000400E0E0F090F8F073
:10123000F8F8FCFCFEFCFE00FC00010103030F0BB0
:101240001F0B1F010F0001000000E060F090F8F09C
:10125000F878FC3CFE00FE00FC00010003000F08D3
:101260001F081F000F0001000000E000F000F80060
:10127000F800FC00FE00FE00FC00010003000F006F
:101280001F001F000F0001000000707078787C784C
:101290007C7C7E7E7F7E7F007E0008081E0A1E0604
:1012A0000E061E123E103A001000703078787C78DE
:1012B0007C3C7E1E7F007F007E0008081E081E0406
:1012C0000E041E103E103A001000700078007C00E2
:1012D0007C007E007F007F007E0008001E001E0054
:1012E0000E001E003E003A001000707078787C7886
:1012F0007C7C7E7E7F7E7F007E0010103A123E0650
:101300001E060E0A1E081E000800703078787C78D1
:101310007C3C7E1E7F007F007E0010103A103E0451
:101320001E040E081E081E000800700078007C00D5
:101330007C007E007F007F007E0010003A003E00AF
:101340001E000E001E001E0008007E7E7F7E7F7C39
:101350007E787C487C707800700010103A021E067F
:101360000E061E163E123E0012007E007F1E7F3CBF
:101370007E787C487C307800700010103A001E00A7
:101380000E001E103E103E0012007E007F007F0007
:101390007E007C007C007800700010003A001E0087
:1013A0000E001E003E003E0012007E7E7F7E7F7C8F
:1013B0007E787C487C7078007000000002021E1667
:1013C0003E163E061E02060002007E007F1E7F3C87
:1013D0007E787C487C3078007000000002001E108F
:1013E0003E103E001E00060002007E007F007F00CF
:1013F0007E007C007C0078007000000002001E006F
:101400003E003E001E0006000200707078487C78A6
:101410007C7C7E4E7F7E7F007E0008081E0A1E06B2
:101420000E061E123E103A001000702078407C70AC
:101430007C787E4E7F007F007E0008081E081E0418
:101440000E041E103E103A001000700078007C0060
:101450007C007E007F007F007E0008001E001E00D2
:101460000E001E003E003A001000707078487C7834
:101470007C7C7E4E7F7E7F007E0010103A123E06FE
:101480001E060E0A1E081E000800702078407C70A0
:101490007C787E4E7F007F007E0010103A103E0464
:1014A0001E040E081E081E000800700078007C0054
:1014B0007C007E007F007F007E0010003A003E002E
:1014C0001E000E001E001E000800707078487C7818
:1014D0007C7C7E7E7F7E7F007E0012123E163E0662
:1014E0001E060E021E103A001000703078487C78FC
:1014F0007C3C7E1E7F007F007E0012103E103E006E
:101500001E000E001E103A001000700078007C00D3
:101510007C007E007F007F007E0012003E003E00C7
:101520001E000E001E003A001000707078487C7893
:101530007C7C7E7E7F7E7F007E00020206061E1679
:101540003E163E021E0002000000703078487C7893
:101550007C3C7E1E7F007F007E00020006001E1085
:101560003E103E001E0002000000700078007C006B
:101570007C007E007F007F007E00020006001E00CF
:101580003E003E001E00020000003E3EFF7CFEFECC
:10159000FFFEFF7CFE3E7F003E00010103010300D1
:1015A000010003020702070002003E00FF00FEAA3E
:1015B000FFD4FF60FE3E7F003E00010103010300F7
:1015C000010003020702070002003E00FF00FE00C8
:1015D000FF00FF00FE007F003E000100030003004B
:1015E000010003000700070002007C7CFEF8FCFC01
:1015F000FEFCFEF8FC7CFE007C0004040E040F01DF
:10160000070103020702070002007C00FE00FC54F1
:10161000FEA8FEC0FC7CFE007C0004040E040F014A
:10162000070103020702070002007C00FE00FC0025
:10163000FE00FE00FC00FE007C0004000E000F0017
:10164000070003000700070002003E3E7F7CFEFE0D
:10165000FFFEFFE4FE7EFF007E00020207000300A3
:10166000010003020702070002003E007F00FE2A7D
:10167000FF54FF60FE3EFF007E00020207000300F1
:10168000010003020702070002003E007F00FE0285
:10169000FF00FF00FE00FF007E00020007000300C5
:1016A000010003000700070002007C7CFEF8FCFC40
:1016B000FEFCFEC8FCFCFE00FC000000000007056C
:1016C0000F050F010700010000007C00FE00FC5424
:1016D000FEA8FEC0FC7CFE00FC0000000000070429
:1016E0000F040F000700010000007C00FE00FC005A
:1016F000FE00FE00FC00FE00FC00000000000700F1
:101700000F000F000700010000007E7EFF64FEFE58
:10171000FFFEFF64FE7E7F007E00010103010300E7
:10172000010003020702070002007E3EFF60FED4B4
:10173000FFAAFF00FE007F007E00010103010300FD
:10174000010003020702070002007E00FF00FE0006
:10175000FF00FF00FE007F007E0001000300030089
:1017600001000300070007000200FCFCFEC8FCFCAF
:10177000FEFCFEC8FCFCFE00FC0004040E040F018D
:1017800007010302070207000200FC00FE00FC54F0
:10179000FEA8FEC0FC7CFE00FC0004040E040F0149
:1017A00007010302070207000200FC00FE00FC0024
:1017B000FE00FE00FC00FE00FC0004000E000F0016
:1017C000070003000700070002007E7EFFE4FEFE24
:1017D000FFFEFF7CFE3E7F003E0002020702070084
:1017E000030001000302070002007E3EFF60FE547A
:1017F000FF2AFF00FE007F003E00020207020700F2
:10180000030001000302070002007E00FF00FE004B
:10181000FF02FF00FE007F003E00020007000700FD
:1018200003000100030007000200FCFCFEC8FCFCF2
:10183000FEFCFEF8FC7CFE007C00000001010705B8
:101840000F050F00070000000000FC7CFEC0FCA894
:10185000FE54FE00FC00FE007C00000001000704B6
:101860000F040F00070000000000FC00FE00FC0059
:10187000FE00FE00FC00FE007C00000001000700EE
:101880000F000F000700000000003E3E7F7C7E7EC0
:101890007F7E7F7C7E3E7F003E0004040E040E02AD
:1018A00006020E081E081C0008003E007F007E2A6B
:1018B0007F547F607E3E7F003E0004040E040E02D3
:1018C00006020E081E081C0008003E007F007E0075
:1018D0007F007F007E007F003E0004000E000E00AF
:1018E00006000E001E001C0008003E3E7F7C7E7E2F
:1018F0007F7E7F7C7E3E7F003E0008081C081E0223
:101900000E0206040E040E0004003E007F007E2A34
:101910007F547F607E3E7F003E0008081C081E0248
:101920000E0206040E040E0004003E007F007E003E
:101930007F007F007E007F003E0008001C001E002C
:101940000E0006000E000E0004003E3E7F7C7E7EF0
:101950007F7E7F647E7E7F007E0008081C000E0272
:1019600006020E0A1E081E0008003E007F007E2AA6
:101970007F547F607E3E7F007E0008081C000E00C2
:1019800006000E081E081E0008003E007F007E02B2
:101990007F007F007E007F007E0008001C000E009C
:1019A00006000E001E001E0008003E3E7F7C7E7E6C
:1019B0007F7E7F647E7E7F007E00000000000E0A36
:1019C0001E0A1E020E00020000003E007F007E2A5A
:1019D0007F547F607E3E7F007E00000000000E0886
:1019E0001E081E000E00020000003E007F007E0068
:1019F0007F007F007E007F007E00000000000E0060
:101A00001E001E000E00020000007E7E7F647E7EAF
:101A10007F7E7F647E7E7F007E0004040E040E02C3
:101A200006020E081E081C0008007E3E7F607E54E1
:101A30007F2A7F007E007F007E0004040E040E02D9
:101A400006020E081E081C0008007E007F007E00B3
:101A50007F007F007E007F007E0004000E000E00ED
:101A600006000E001E001C0008007E7E7F647E7E45
:101A70007F7E7F647E7E7F007E0008081C081E0239
:101A80000E0206040E040E0004007E007F007E2A73
:101A90007F547F607E3E7F007E0008081C081E0287
:101AA0000E0206040E040E0004007E007F007E007D
:101AB0007F007F007E007F007E0008001C001E006B
:101AC0000E0006000E000E0004007E7E7F647E7E07
:101AD0007F7E7F7C7E3E7F003E0008081E0A1E023D
:101AE0000E0206000E081C0008007E3E7F607E5439
:101AF0007F2A7F007E007F003E0008081E081E002F
:101B00000E0006000E081C0008007E007F007E000C
:101B10007F027F007E007F003E0008001E001E0046
:101B20000E0006000E001C0008007E7E7F647E7E94
:101B30007F7E7F7C7E3E7F003E00000002020E0A18
:101B40001E0A1E000E00000000007E3E7F607E54D4
:101B50007F2A7F007E007F003E00000002000E080A
:101B60001E081E000E00000000007E007F007E00A8
:101B70007F007F007E007F003E00000002000E001C
:101B80001E001E000E00000000003C3CFFF8FEFCA2
:101B9000FFF8FE3CFF003C000000020207020701C4
:101BA000030107040F040E0004003C3CFFF8FEFC98
:101BB000FF08FE00FF003C000000020207020701D0
:101BC000030107040F040E0004003C00FF00FE00A8
:101BD000FF00FE00FF003C000000020007000700BD
:101BE000030007000F000E0004007878FEF0FCF8F8
:101BF000FEF0FC78FE007800000008081D091F03B5
:101C00000F0307040F040E0004007878FEF0FCF8C0
:101C1000FE10FC00FE007800000008081D091F03EC
:101C20000F0207040F040E0004007800FE00FC0001
:101C3000FE00FC00FE007800000008001D001F00F0
:101C40000F0007000F000E00040000007C7CFFF86E
:101C5000FEFCFFC8FE3CFF003C0004040E00070130
:101C6000030107050F040F00040000007C00FF784B
:101C7000FEFCFFC8FE3CFF003C0004040E00070011
:101C8000030007040F040F00040000007C00FF00A5
:101C9000FE00FF00FE00FF003C0004000E000700F5
:101CA000030007000F000F0004000000F8F8FEF02A
:101CB000FCF8FE90FC78FE007800000000000F0B9E
:101CC0001F0B1F030F00030000000000F800FEF0D0
:101CD000FCF8FE90FC78FE007800000000000F0881
:101CE0001F091F010F00030000000000F800FE00A4
:101CF000FC00FE00FC00FE007800000000000F0069
:101D00001F001F000F00030000003C3CFFC8FE7CCA
:101D1000FFC8FE3CFF003C00000002020702070172
:101D2000030107040F040E0004003C3CFFC8FE7CC6
:101D3000FF48FE00FF003C0000000202070207010E
:101D4000030107040F040E0004003C00FF00FE0026
:101D5000FF00FE00FF003C0000000200070007003B
:101D6000030007000F000E0004007878FE90FCF8D6
:101D7000FE90FC78FE007800000008081D091F0294
:101D80000F0307040F040E0004007878FE90FCF89F
:101D9000FE90FC00FE007800000008081D091F02EC
:101DA0000F0207040F040E0004007800FE00FC0080
:101DB000FE00FC00FE007800000008001D001F006F
:101DC0000F0007000F000E0004003C3CFFC8FEFCA3
:101DD000FFF8FE7CFF007C00000004040F050F01EB
:101DE0000701030007040E0004003C3CFFC8FEFC92
:101DF000FF78FE00FF007C00000004040F040F00C9
:101E00000700030007040E0004003C00FF00FE0072
:101E1000FF00FE00FF007C00000004000F000F0028
:101E20000700030007000E0004007878FE90FCF81D
:101E3000FEF0FCF8FE00F8000000000003030F0BAA
:101E40001F0B1F000F00000000007878FE90FCF8C8
:101E5000FEF0FC00FE00F8000000000003010F0986
:101E60001F081F000F00000000007800FE00FC00AB
:101E7000FE00FC00FE00F8000000000003000F0060
:101E80001F001F000F00000000003C3C7F787E7C9C
:101E90007F787E3C7F003C00000008081E0A1E067A
:101EA0000E061E103E10380010003C3C7F787E7CF1
:101EB0007F087E007F003C00000008081E0A1E0606
:101EC0000E041E103E10380010003C007F007E0003
:101ED0007F007E007F003C00000008001E001E0006
:101EE0000E001E003E00380010003C3C7F787E7CD7
:101EF0007F787E3C7F003C00000010103A123E06C6
:101F00001E060E081E081C0008003C3C7F787E7CE4
:101F10007F087E007F003C00000010103A123E0651
:101F20001E040E081E081C0008003C007F007E00F6
:101F30007F007E007F003C00000010003A003E0061
:101F40001E000E001E001C00080000007C7C7F7834
:101F50007E7C7F487E3C7F003C00101038001E06CF
:101F60000E061E163E103E00100000007C007F781A
:101F70007E7C7F487E3C7F003C00101038001E00B5
:101F80000E021E123E103E00100000007C007F007A
:101F90007E007F007E007F003C00100038001E00A5
:101FA0000E001E003E003E00100000007C7C7F788A
:101FB0007E7C7F487E3C7F003C00000000001E16B7
:101FC0003E163E061E000600000000007C007F78E2
:101FD0007E7C7F487E3C7F003C00000000001E109D
:101FE0003E123E021E000600000000007C007F0042
:101FF0007E007F007E007F003C00000000001E008D
:102000003E003E001E00060000003C3C7F487E7CF7
:102010007F487E3C7F003C00000008081E0A1E042A
:102020000E061E103E10380010003C3C7F487E7C9F
:102030007F487E007F003C00000008081E0A1E0446
:102040000E041E103E10380010003C007F007E0081
:102050007F007E007F003C00000008001E001E0084
:102060000E001E003E00380010003C3C7F487E7C85
:102070007F487E3C7F003C00000010103A123E0476
:102080001E060E081E081C0008003C3C7F487E7C93
:102090007F487E007F003C00000010103A123E0492
:1020A0001E040E081E081C0008003C007F007E0075
:1020B0007F007E007F003C00000010003A003E00E0
:1020C0001E000E001E001C0008003C3C7F487E7C69
:1020D0007F787E7C7F007C00000010103E163E065C
:1020E0001E060E001E10380010003C3C7F487E7C0F
:1020F0007F787E007F007C00000010103E123E02C0
:102100001E000E001E10380010003C007F007E00F4
:102110007F007E007F007C00000010003E003E003B
:102120001E000E001E00380010003C3C7F487E7CE4
:102130007F787E7C7F007C000000000006061E1673
:102140003E163E001E00000000003C3C7F487E7CA6
:102150007F787E007F007C000000000006021E12D7
:102160003E103E001E00000000003C007F007E008C
:102170007F007E007F007C000000000006001E0043
:102180003E003E001E00000000081000FF1EFF0081
:10219000FF3CFE00FE78FC00FC0000000300030092
:1021A000030003000300030003000000FF1EFF0004
:1021B000FF3CFE00FE78FC00FC0000000300030072
:1021C000030003000300030003000000FF00FF0002
:1021D000FF00FE00FE00FC00FC0000000300030006
:1021E000030003000300030003000000FF1EFF00C4
:1021F000FF3CFE00FE78FC00FC0000000300030032
:10220000030003000300030003000000FF00FF00C1
:10221000FF00FE00FE00FC00FC00000003000300C5
:10222000030003000300030003000000FF00FF00A1
:10223000FF00FE00FE00FC00FC00000003000300A5
:102240000300030003000300030000F8F800F8F89F
:10225000F800F800F8F8F800F8F8F8F8F8F8F800DE
:10226000F8F8F8F8F800F8F8F8F8F8F8F8000000CE
:10227000F8F8F8000000F8F8F8F8F8F8F8000000AE
:102280000000F80000000000F8F8F8080800F0204E
:10229000F020F020F020F020F020F020F000F020DE
:1022A000F020F020F020F020F020F020F000F020CE
:1022B000F020F020F020F020F020F020F020F0209E
:1022C000F020F020F020F020F020F000F020F020AE
:1022D000F020F020F020F020F020F000F020F0209E
:1022E000F020F020F020F020F020F000F020FF207F
:1022F000FF20FF20FF20FF20FF20FF20FF20FF20E6
:10230000FF20FF20FF20FF20FF20FF20FF20FF20D5
:10231000FF20FF20FF20FF20FF20FF20FF20FF20C5
:10232000FF20FF20FF20FF20FF20FF00FF20FF20D5
:10233000FF20FF20FF20FF20FF20FF00FF20FF20C5
:10234000FF20FF20FF20FF20FF20FF00FF00FF20D5
:10235000FF20FF20FF20FF20FF20FF20FF00FF20A5
:10236000FF20FF20FF20FF20FF20FF20FF00FF2095
:10237000FF20FF20FF20FF20FF20FF20FF00F02094
:10238000F020F020F020F020F020F000F000F0200D
:10239000F020F020F020F020F020F000F000F020FD
:1023A000F020F020F020F020F020F000F020F020CD
:1023B000F020F020F020F020F020F020F020F0209D
:1023C000F020F020F020F020F020F020F020F0208D
:1023D000F020F020F020F020F020F020F000FF208E
:1023E000FF20FF20FF20FF20FF20FF00FF00FF2035
:1023F000FF20FF20FF20FF20FF20FF00FF00FF2025
:10240000FF20FF20FF20FF20FF20FF00FF08080023
:10241000EEEEEEE0EEEE0000EE6666606E66000048
:1024200000000000000000006E6E6E606E6E000026
:102430006E2626202E26000000000000000000006E
:10244000EEEEEEE0EEEEEE00EE6666606E666600C4
:10245000000000000000000E6E6E6E606E6E6E0674
:10246000662626202E262600000000000000000E12
:10247000EEEEEEE0EEEEEE06E66666606E66660096
:10248000000000000000000EEEEEE0EEEEEE0006B2
:10249000E666606E66660000000000000000000056
:1024A0006E6E6E606E6E6E006E2626202E262600E4
:1024B000000000000000000E6E6E606E6E6E000682
:1024C0006626202E262600000000000000000000E6
:1024D00000000000000000000000000000000000FC
:1024E00000000000000000F0F0F0F0F0F0F0F0F07C
:1024F000F0F0F0F0F0F0F0F0F0F0F0F0F0F0F008C4
:1025000008F0F0F0F0F0F0F0F0F0F0F0F0F0F0F0B3
:10251000F0F0F0F0F0F0F0F0F008080EEEEEEEE083
:10252000EEEEEE06E66666606E666600000000008F
:1025300000000008080E6E6E6E606E6E6E066626F7
:1025400026202E26260000000000000000010101C8
:102550000101010202020304050303010102030455
:10256000050601020301010102030B00A53111243C
:102570001FBECFEFDAE0DEBFCDBF11E0A0E0B1E0DB
:10258000E6EDF1E702C005900D92AE33B107D9F741
:1025900029E0AEE3B1E001C01D92A133B207E1F73B
:1025A00012E1C7EBD2E104C02197FE010E94CF38AF
:1025B000C63BD107C9F70E9401320C94E9380C944C
:1025C000000090E020915108022E000C330B82177E
:1025D00093071CF1F9017196E817F907F4F070E020
:1025E000E09152080E2E000CFF0B6E177F07ACF027
:1025F000DF011A96A617B70784F06E1B7F0B821BAC
:10260000930B52E1569F9001579F300D112429578B
:102610003A4F820F931FFC01428708952F923F92F9
:102620004F925F926F927F928F929F92AF92BF92E2
:10263000CF92DF92EF92FF920F931F93CF93DF938E
:1026400000D000D01F92CDB7DEB747E855E02BE0B1
:102650003FEF90E080E0FA01E80FF91F3287019622
:1026600082319105C1F721504E5E5F4F2111F1CFAC
:1026700005E716E0F12C82E1E82EF801F181FC83F8
:10268000F801F281FB83F8012081263008F059C05F
:102690002130C8F14F2D6B818C810E94E112FC81A9
:1026A0002F2F30E080915108082E000C990BAC01BF
:1026B000415051092417350734F142968217930788
:1026C00014F14B81242F30E080915208082E000C29
:1026D000990BAC014150510924173507A4F00B9612
:1026E0008217930784F0DF2C6894D7F8F801808173
:1026F000833009F45DC108F012C1813009F422C1B0
:10270000823009F437C1F3940A5F1F4FF8E2FF12D9
:10271000B4CF0F900F900F900F900F90DF91CF914B
:102720001F910F91FF90EF90DF90CF90BF90AF90EF
:102730009F908F907F906F905F904F903F902F90E1
:10274000089527502F3008F086C130E0F901E45A8F
:10275000FA4D6491235B3A4DF9012491A0915108FF
:102760000A2E000CBB0B1D01F1E12F0E311CC09095
:1027700052080C2C000CDD0826014AE0440E511CC6
:102780003B81832F860F9927991F5C01EC81E20F13
:10279000FF27FF1FFA83E983632E712C6A147B04E1
:1027A0000CF07FC0C3018C199D094C01F1E08F1A18
:1027B00091087C81E89EA001E99E500D11244957A3
:1027C0005A4FE89CC001E99C900D1124FC01E95787
:1027D000FA4F4F01872F90E0E981FA818E179F070A
:1027E0000CF05DC08A179B079CF02816390684F010
:1027F0006C147D046CF04614570454F08A1B9B0B38
:10280000F801F381F33031F0840F951FFC01F2865B
:102810007F5FE0CFFA01E80FF91FE252FE4FE0813F
:10282000E950EA30A8F7F0E0E85EFB4E0C94CF38B0
:10283000221408144C144C143714371437144C1445
:102840004C143714F401E80FF91FE252FE4FE081F7
:10285000EB3010F1ED3018F0E051E230E8F4840F85
:10286000951FFC01E252FE4F8AE08083D1CFF40134
:10287000E80FF91FE252FE4FE081840F951FE1112E
:1028800005C0FC01E252FE4F1082C2CFFC01E252B1
:10289000FE4F9AE09083BCCF840F951FF2CF3F5F2D
:1028A0007BCFF8018381833009F02DCFFB816F0F3F
:1028B00070E0CB018C199D09EC81E20FFF27FF1F0F
:1028C000AF01E89E9001E99E300D112429573A4F3F
:1028D0008C81E82FF0E0E417F5070CF014CFEA172D
:1028E000FB07A4F02E163F068CF06C157D0574F0E6
:1028F000461657065CF0EA1BFB0BE20FF31FE25291
:10290000FE4F8081893031F08A3039F0EC81EF5F01
:10291000EC83DECF9BE09083F9CF1082F7CF843039
:1029200009F47BC0853009F0EECE8381823009F452
:102930008DC008F085C08111E6CE6B8161504D2DB0
:102940008C815DC08381823011F138F48111DBCE3E
:102950006B8161504D2D8C810AC0843009F451C0C7
:10296000863009F0D0CE4D2D6B818C8181500E9434
:10297000E112C9CE8381823009F43DC068F481112F
:10298000C2CE6B8161504D2D8C810E94E1124D2D84
:102990006B818C818F5FEBCF843011F1863009F031
:1029A000B2CE4D2D6B818C8181500E94E112D0CF2F
:1029B00083818230D1F048F48111A5CE4D2D6B81F9
:1029C0008C8181500E94E112DCCF8430E9F08630A6
:1029D00009F099CE6B8161504D2D8C810E94E112DE
:1029E0004D2D6B818C8181500AC06B8161504D2DC2
:1029F0008C810E94E1124D2D6B818C818F5F0E9432
:102A0000E1126B816F5FA6CF4D2D6B818C81815060
:102A10000E94E1126B816F5FB6CF6B8161504D2DCB
:102A20008C810E94E1124D2D6B818C818F5F0E9401
:102A3000E1126B816F5F4D2D8C810E94E11293CF6B
:102A4000843009F47ACF863009F05DCE4D2D6B814C
:102A50008C8181509ACF4F2D6B817DCF0DB407FEB5
:102A6000FDCF8EB51EBC0895882391F08091550846
:102A7000882371F034F490915308985F883F34F4C0
:102A800008959091530898508930D4F7890F08958C
:102A9000809153080895882389F0809156088823EF
:102AA00069F024F498EF883F24F4089598E0893081
:102AB000E4F7981B80915408891B0895809154086D
:102AC0000895EBE6F6E084E19191911110C0E1E602
:102AD000F6E08AE0919191110FC0E7E5F6E081916F
:102AE000882349F09F5F9A30D1F781E008958F5F86
:102AF0008E3151F782E008958F5F843159F7FACF14
:102B0000FC01238130E02F5F3F4F27703327238361
:102B100081E0848384E085830C940E13FC0123817F
:102B200030E0295F3F4F27703327238382E084837F
:102B300084E085830C940E13CF92DF92EF92FF9284
:102B40000F931F93CF93DF9305E716E050E0A82F74
:102B5000B0E0C62FD0E0451791F1F8012081F18057
:102B60007281263040F5213078F1F81201C17617D4
:102B700009F450C0233009F499C008F4FDC0243092
:102B800009F014C1272F30E0F9013197CE17DF0784
:102B900009F440C02F5F3F4FC217D30709F43AC072
:102BA0002F2D30E0F9013197AE17BF0709F05BC058
:102BB000761359C02FC0263049F0263160F05F5F90
:102BC0000A5F1F4F583239F65FEF24C0F812F7CF73
:102BD0007613F5CF1FC09381933088F7275030E0EC
:102BE000F901E35BFA4D9491245A3A4DF90124918D
:102BF0008F1528F3CF2CC90EDD24DD1CAC15BD05C7
:102C0000F4F66717E0F2E72FE20FFF27FF1FCE175A
:102C1000DF07ACF6852FDF91CF911F910F91FF90C9
:102C2000EF90DF90CF9008959430C9F1963039F647
:102C3000EF2DE150FF0B9F01A217B30709F0BFCFA3
:102C4000C7CFF8019381923009F46BC078F49111E9
:102C5000B6CFF81206C0E72FE150FF0BCE17DF0703
:102C6000C9F22F2D30E02F5F3F4FE6CF943069F04F
:102C7000963009F0A4CFEF2DE150FF0BAE17BF0740
:102C800009F086C0761384C0C5CFEF2DE150FF0B4D
:102C90009F01A217B30719F4761709F4BBCF272FAA
:102CA00030E0F8128CCF2F5F3F4F78C0F80193814E
:102CB000923071F1A8F4911182CF2F2D30E0F901FB
:102CC0003197AE17BF0719F4761709F4A3CFF8129E
:102CD000CACFE72FE150FF0BCE17DF0721F69ACFBF
:102CE000943021F1963009F06ACFEF2DE150FF0BBF
:102CF000AE17BF0719F4761709F48CCFF8125FCF1F
:102D0000272F30E0F9013197CE17DF0761F682CF28
:102D1000F81207C0E72FE150FF0BCE17DF0709F4C9
:102D200079CF2F2D30E02F5F3F4FB3CF2F2D30E0E5
:102D3000F9013197AE17BF0719F4761709F46ACF76
:102D4000F81291CFE72FF0E03196CE17DF0709F0A8
:102D50008ACF60CF943091F2963009F030CF2F2D8A
:102D600030E0F9013197AE17BF0709F07CCF30CFC3
:102D7000233009F49BCFB8F4223009F462CFF80174
:102D80009381923009F46DCF08F04ECF911117CF97
:102D9000F81215CFE72FE150FF0B9F01C217D307A1
:102DA00009F00DCF37CF243009F4FACE253039F7AA
:102DB000F8019381923099F268F6992309F49ECF35
:102DC000FECECF93DF93EC0190912D099F5F9E3152
:102DD00071F190932D09E0912D0980912E09E8134E
:102DE00006C081E08E0F8E3129F180932E09A091CB
:102DF0004B0887E0E89FF0011124E55AF74FA083C4
:102E000088E0A89FD0011124A55DB74F12968C9140
:102E10001297818313968C91828363838981848343
:102E20008A8185838B818683DF91CF91089510926B
:102E30002D09D1CF10922E09DACF80912D098F5F05
:102E40008E3139F180932D09E0912D0980912E0961
:102E5000E81306C081E08E0F8E31F1F080932E09C9
:102E6000A0914B0887E0E89FF0011124E55AF74F45
:102E7000A08388E0A89FD0011124A55DB74F1296CA
:102E80008C911297818313968C9182838FEF838329
:102E9000089510922D09D8CF10922E09E1CFE7E8BE
:102EA000F5E0AAEAB3E060E070E080E00E94D617A7
:102EB0009D01AF0160E00E946E178217930751F4E5
:102EC000D901FA0160E00E942E1581931197D9F77C
:102ED00061E0F1CF0E947317862F08950E942E158E
:102EE000982F0C942E150DB407FEFDCF8EB5599A70
:102EF00008952AEA33E0E7E8F5E0A0E0B0E0BD019C
:102F000080E00E94D6170E94C517BD011296A20F3D
:102F1000B31F8217930799F38F5F9F4F21F4AF5F21
:102F2000BF40DB0178F00E94552440E050918505B8
:102F30006091860580E20E94CA17599A0E9416186D
:102F4000A0E0B0E07CEF0E9455244A2F5091850507
:102F50005B0F60918605611D82E00E94CA17832F76
:102F600071FD822F70FD81910E94E217759518F412
:102F70002150304019F01196AA2389F7599A0E94DE
:102F8000161821153105F9F608950E942E15982F6F
:102F90000C94731759980E94E217862F0E94E2172B
:102FA000852F0E94E217842F0C94E217462F509130
:102FB0008505570F60918605681F83E00E94CA1738
:102FC0001EBC08958EBD00008EB50DB407FEFCCF6B
:102FD0000895E5E0F0E00E94FE17319728F068516F
:102FE0007C4F8F4F9F4FF9CFAB01FC010E94FE1722
:102FF000641775078E079F07C8F30895ADE7B5E01E
:103000002FB7F8947D918D919C9166B52FBFA89BA9
:1030100005C06F3F18F47F5F8F4F9F4F22E0660F10
:10302000771F881F991F2A95D1F70895599885E031
:103030000E94E21780E00E94E21780FDFBCF599AC0
:10304000089590E0409F09F4142E5527090E151E8F
:10305000600D711D851F11240C943C180F9303E023
:1030600020E00E9421180E946E17782F0E9473178B
:10307000682F892F0F910895462F50918105570F82
:1030800060918205681F83E00E94CA171EBC0895E4
:10309000CF92DF92EF921F93CF93282F082E000C30
:1030A000330B90915108291B3109462F062E000C35
:1030B000550B2231310538F490915208491B5109C2
:1030C0004B30510570F1162FC82F40914C0863E02A
:1030D0007AE280E00E942E186B01E82E20914D08C4
:1030E0001203900111248C2FCC0F990BAA0B42963E
:1030F000A11D820F931FA11D37FDAA95BC018A2F28
:103100006C0D7D1D8E1D0E943C180E942E15C82F2F
:103110000E9473178C2FCF911F91EF90DF90CF906B
:10312000089582E1849FF001859FF00D1124E20F44
:10313000F31FEB59F84FC081EDCF1F93CF93DF936F
:10314000C82FD62F842F122F453319F48C2F0E94AD
:103150004818882319F089508A3010F5412F6D2FB7
:103160008C2F0E949C158F3FD9F490914B0827E833
:1031700035E080E0981751F0F901EA55FD4F4081A4
:10318000C41304C031964081D41751F08F5F285F7B
:103190003F4F843079F781E0DF91CF911F910895FF
:1031A00080E0FACFDF92EF92FF920F931F93CF93BD
:1031B000DF93FC01F62ED42F0181C28190819330E0
:1031C00009F418C178F4913009F443C0923009F43D
:1031D0009AC0892FDF91CF911F910F91FF90EF90AF
:1031E000DF900895943009F4A5C1953091F793814B
:1031F000923009F4C7C108F0BFC1911102C11FEF9D
:10320000100F4F2DD23009F0D7C16FEF6C0F812F07
:103210000E949C158F3F09F0D3C04F2D6C2F812F3A
:103220000E949C158F3F09F0CBC00F5F4F2D6C2F74
:10323000802F0E949C1561E06C0F4F2D8F3F09F08D
:10324000BFC0802F0E949C1591E08F3F09F0B8C04D
:10325000C0CF9381923029F158F49111BACF6FEF1A
:103260006C0F4230E1F401502F2D45E3802F0EC04A
:10327000943099F1963009F0ACCF8FEF800F423047
:1032800009F03FC0CF5F2F2D45E36C2F0E949D18A2
:10329000882309F495C02F2D45E36C2F2EC00F5FB6
:1032A000E3CF4230C1F4C1502F2D45E36C2F802F66
:1032B0000E949D18882309F483C02F2D45E36C2FAD
:1032C00081E0800FDF91CF911F910F91FF90EF90E0
:1032D000DF900C949D18CF5FE7CF423081F40F5FF1
:1032E0002F2D45E36C2F802F0E949D18882309F411
:1032F00067C061E06C0F2F2D45E3802FE3CF0150B5
:10330000EFCFC150C0CF93819230E9F1B8F4911161
:1033100060CFEE24EA94EC0E11E0100F2FEF45E39E
:103320006E2D812F0E949D18882309F449C0D23048
:10333000E1F401502F2D45E36E2D98CF943009F420
:1033400041C0963009F045CFEE24EA94EC0E1FEF11
:10335000100F462F6E2D812F0E949C158F3F81F5F7
:10336000D23009F045C0CF5F3EC0CF5F2F2D45E37F
:103370006C2F802F0E949D18882311F12F2D45E37B
:103380006C2F812F9FCFEE24E394EC0E11E0100FF1
:103390002FEF45E36E2D812F0E949D18882381F029
:1033A000D23011F4C150E2CF01502F2D45E36C2FE4
:1033B000802F0E949D182F2D45E36E2D81119DCFEA
:1033C00090E007CFEE24E394EC0E1FEF100F462F92
:1033D0006E2D812F0E949C158F3F91F7D23011F4F2
:1033E0000F5FE3CFC1502F2D45E36C2F812F4ECFC0
:1033F0000F5FA0CF9381923009F452C020F499233B
:1034000071F191E0E6CE943009F46AC09630C9F7C4
:10341000EE24EA94EC0E1FEF100F462F6E2D812F35
:103420000E949C158F3F61F6DD24D394DC0E4F2D56
:103430006D2D812F0E949C158F3F11F60F5F2F2D50
:1034400045E3D23009F078CF6C2F802F0E949D1871
:103450002F2D45E36D2D882309F4B2CF4ECFDD2407
:10346000DA94DC0EEE24EA94E00E462F6D2D8E2DBC
:103470000E949C158F3F09F0A3CF11E0100F4F2D34
:103480006D2D812F0E949C158F3F09F099CFCF5F42
:103490002F2D45E36C2F8E2DD23009F4F7CE69CF56
:1034A000DD24DA94DC0E11E0100F462F6D2D812FF4
:1034B0000E949C158F3F09F083CFEE24E394EC0E1D
:1034C0004F2D6E2D812F0E949C158F3F09F078CFD4
:1034D00001502F2D45E36D2DD23009F4C7CE67CFB3
:1034E000DD24D394DC0E1FEF100F462F6D2D812F9E
:1034F0000E949C158F3F09F063CFEE24E394E00E09
:103500004F2D6D2D8E2D0E949C158F3F09F058CFA9
:10351000C1502F2D45E36C2FD23009F067CF802F9B
:103520000E949D18882309F44BCF2F2D45E36C2F63
:103530008E2DC8CEEE24EA94EC0EDFEFD00F462F8E
:103540006E2D8D2F0E949C158F3F09F039CF0F5F94
:103550004F2D6E2D802F0E949C158F3F09F030CF8C
:10356000CF5F4F2D6C2F8D2F0E949C158F3F09F040
:1035700027CF4F2D6C2F65CE943009F440CE963076
:1035800009F03FCF1FEF1C0F4F2D612FD23051F5A7
:10359000802F0E949C158F3F09F012CF4F2D612F75
:1035A00081E0800F0E949C158F3F09F009CFCF5F0B
:1035B0004F2D6C2F800FD8CF6C2F812F0E949C1520
:1035C0008F3F09F0FDCE4F2D61E06C0F812F0E94DF
:1035D0009C158F3F09F0F4CE0F5F4F2D6FEF6C0FEE
:1035E000802FC2CF8FEF800F0E949C158F3F09F074
:1035F000E7CE4F2D612F802F0E949C158F3F09F041
:10360000DFCECF5F4F2D6C2F802F0E949C158F3FF8
:1036100009F0D6CE4F2D6C2F81E0800F13CE2F9264
:103620003F924F925F926F927F928F929F92AF9252
:10363000BF92CF92DF92EF92FF920F931F93CF939F
:10364000DF93382E86E0389E800111240B58194FE5
:10365000F801C081C750418081E0623031F06430B0
:1036600019F08FEF611101C080E0480EF8018281EE
:10367000512C653028F4E62FF0E0E75CFE4F5080D7
:10368000580ED0E0CE01845A9A4D3C01C52C052C31
:10369000000CDD08C35BDA4DA42C042C000CBB0825
:1036A0008DE4882E88E0982EE52CF12CF30184918E
:1036B0008C0D9D2D911DE816F9060CF03FC0242CB1
:1036C000222D30E0FE0184918A0D9B2D911D28173B
:1036D000390794F5F80181812816A0F0FE01949134
:1036E000890F9927991F2817390764F4F8018281F7
:1036F000581640F0F3019491890F9927991FE81605
:10370000F906C4F0652D822D0E944818232D482FFC
:10371000652D822D0E949D18882389F0EDE2F8E046
:103720008081281203C081815816E1F038968E16E8
:103730009F06B1F72394C4CF5394B6CF81E0DF91B5
:10374000CF911F910F91FF90EF90DF90CF90BF909E
:10375000AF909F908F907F906F905F904F903F9031
:103760002F90089580E0EBCFEF92FF920F931F937D
:10377000CF93DF938C01FC018081875090E0FC01A6
:10378000E45AFA4DE490FC01E35BFA4DC491D0E0B9
:10379000ED16D9F0F12CCF15B1F0F80162816D0F63
:1037A00081818F0D0E944818893021F0B0F08B5034
:1037B000883098F44FEF6D2F8F2D0E949C158F3F0E
:1037C00061F4F394E8CFDF5FE3CF81E0DF91CF9145
:1037D0001F910F91FF90EF90089580E0F7CFCF9267
:1037E000DF92EF92FF920F931F93CF93DF9350914D
:1037F0004B0878E0579FF0011124E55DF74F27E86B
:1038000035E090E0C62E062E000CDD08E42E042ED6
:10381000000CFF08591701F1D901AA55BD4F7C9141
:10382000A281AC0DBD2DB11D7A171B06A9F4D901DB
:10383000A955BD4F7C91A381AE0DBF2DB11D7A1747
:103840001B0651F480E0DF91CF911F910F91FF9003
:10385000EF90DF90CF9008959F5F285F3F4F9430A7
:10386000C9F6D42FC62F182F828140915108042EFB
:10387000000C550B638120915208022E000C330B73
:10388000A62FB0E0A21BB30BAE0DBF1DE82EF12C8E
:10389000E41AF50A92E19A9FF0019B9FF00D112422
:1038A000E957FA4FEC0DFD1DEE0DFF1DE252FE4FE4
:1038B0007081772321F097EF970F9A3050F5AD2F55
:1038C000A60FB0E0A21BB30BEC2FE80F2E2F30E0B9
:1038D000241B350B92E19A9FF0019B9FF00D112460
:1038E000E957FA4FE20FF31FE285EF3F91F02E2FD9
:1038F00030E046E0E49FF0011124EB58F94F90814D
:10390000913038F0963008F49DCF97509F3008F4EE
:1039100051C0772319F07A3009F094CF6D0F8C0FD6
:10392000123009F40EC208F053C011114EC04FEF0F
:103930000E949C15D82E8FEFD81609F483C04D2D08
:1039400050E096E0D99E800111240B58194FF801E0
:10395000808187508F3008F075C0949F9001959FAB
:10396000300D1124A90149575A4F7A01FA01EF503D
:10397000FF4F8081833008F065C060E08D2D0E948C
:103980000F1B882309F45ECF6D2DC8010E94E1163C
:10399000F801828181508283C8010E94B41B882370
:1039A00029F0F701EE50FF4F81E080830E940E1353
:1039B00081E049CF429FF001439FF00D1124E85868
:1039C000F94F9081933009F0A4CF0E941D17F0CFDA
:1039D000143009F42EC31630C1F74FEF0E949C1526
:1039E000D82EFFEF8F1709F4A2C4282F30E0819F53
:1039F000C0011124AC014B58594F7A01FA01808162
:103A000087508F3008F093C4129FC001139F900D10
:103A100011248C0109571A4FF801EF50FF4F808194
:103A2000833008F084C466E08D2D0E940F1B88232C
:103A300009F408CF6D2DC7010E94E116F7018181BD
:103A40008150AAC1E0914B0848E0E49FF0011124A5
:103A5000E55DF74F83812D2F220F280F92818C2F48
:103A6000880F890F60915208062E000C770B409149
:103A70005108042E000C550B022F10E0061B170BEB
:103A8000A82FB0E0A41BB50B92E1909FF001919F8D
:103A9000F00D1124E957FA4FEA0FFB1FE285EF3FC3
:103AA00089F0AE2FB0E096E0E99FF0011124EB58C9
:103AB000F94F3081323009F495C008F072C03130CE
:103AC00009F47FC08C1B2D1B30E0261B370BEFEF5A
:103AD000E80F6E2F70E0641B750B92E1929FF0016E
:103AE000939FF00D1124E957FA4FE60FF71F128547
:103AF0001F3FA1F0E12FF0E066E0169FE0011124E6
:103B0000CB58D94F9881933009F4CFC008F082C0C8
:103B1000913009F492C0923009F4AAC08F5F90E00E
:103B2000841B950B62E1629FA001639F500D1124DD
:103B300049575A4F840F951FFC0112851F3F09F406
:103B400044CF212F30E096E0199FE0011124CB589B
:103B5000D94F8881833009F4E3C008F0B5C08130C3
:103B600009F4D2C0823009F030CF929FF001939FC8
:103B7000F00D1124E858F94F8081843009F0CCC051
:103B800041E0612FCE010E94D218882309F45ACE59
:103B9000612FCE010E94E116CE010E94801582E0C5
:103BA00052CE333071F1353009F08CCF9A9FF0014D
:103BB0009B9FF00D1124E858F94F90819230E9F461
:103BC00081CF9A9FF0019B9FF00D1124E858F94F87
:103BD0009081923009F476CF963009F473CF911129
:103BE00031CE70CF9A9FF0019B9FF00D1124E858C1
:103BF000F94F9081992309F465CF963009F022CED0
:103C000061CF9A9FF0019B9FF00D1124E858F94F66
:103C10009081E5CF9430C9F1953009F07FCF6E9F48
:103C2000D0016F9FB00D1124A858B94F9C919230CC
:103C300079F0963009F072CF0BC06E9FD0016F9F64
:103C4000B00D1124A858B94F9C91923009F066CF5D
:103C500042E0612FCE010E94D218882309F4F2CDF0
:103C6000612FCE010E94E116CE010E948E15A0CEDA
:103C70006E9FD0016F9FB00D1124A858B94F9C9131
:103C8000992331F3923009F049CF42E0612FCE0100
:103C90000E94D218882309F4D5CD612FCE010E944D
:103CA000E116CE010E948E157ACF6E9FD0016F9FD4
:103CB000B00D1124A858B94F9C91923031F3943033
:103CC00021F391112BCFC4CF843009F459CF853023
:103CD00009F07BCE929FF001939FF00D1124E858DC
:103CE000F94F80818230C1F441E0612FCE010E9402
:103CF000D218882309F4A6CD612FCE010E94E116C7
:103D0000CE010E94801554CE929FF001939FF00D3A
:103D10001124E858F94F8081863009F056CEE4CF5F
:103D2000929FF001939FF00D1124E858F94F808184
:103D3000843009F425CF863009F422CF811145CE95
:103D4000D3CF4FEF0E949C15D82EFFEF8F1731F184
:103D500096E0899FA0011124BA016B58794F7B012D
:103D6000FB01808187508F30C8F48A0109571A4FB0
:103D7000F801EF50FF4F8081833080F462E08D2D99
:103D80000E940F1B882309F45DCD6D2DC7010E9491
:103D9000E116F70181818F5F818377C1E0914B0844
:103DA00048E0E49FF0011124E55DF74F93818D2FEA
:103DB000880F890F92812C2F220F290F40915208D2
:103DC000042E000C550B60915108062E000C770B49
:103DD000082F10E0041B150BA22FB0E0A61BB70B99
:103DE00092E1909FF001919FF00D1124E957FA4F55
:103DF000EA0FFB1FE285EF3F89F0AE2FB0E096E0BF
:103E0000E99FF0011124EB58F94F3081323009F469
:103E10008BC008F064C0313009F475C08D1B2C1BB9
:103E200030E0261B370B6FEF680F70E0641B750BDB
:103E300092E1969FF001979FF00D1124E957FA4FF8
:103E4000E20FF31F12851F3FA1F0E12FF0E066E0C3
:103E5000169FE0011124CB58D94F9881933009F473
:103E6000A7C008F079C0913009F487C0923009F4F6
:103E700090C08F5F90E0841B950B62E1689FA0016A
:103E8000699F500D112449575A4F240F351FF901CE
:103E900012851F3F09F499CD212F30E096E0199F3C
:103EA000E0011124CB58D94F8881833009F4B0C088
:103EB00008F090C0813009F4A2C0823009F085CDAD
:103EC000929FF001939FF00D1124E858F94F8081E3
:103ED000882309F409CF863009F452CE76CD3330E9
:103EE00091F1353009F09ACF9A9FF0019B9FF00D28
:103EF0001124E858F94F9081992309F48FCF943019
:103F000009F0A0CC8BCF9A9FF0019B9FF00D11245C
:103F1000E858F94F9081923009F480CF943009F439
:103F20007DCF91118FCC7ACF9A9FF0019B9FF00D9E
:103F30001124E858F94F9081992309F46FCF9230FA
:103F400009F080CC6BCF9A9FF0019B9FF00D11245C
:103F5000E858F94F9081F3CF943009F496CE95301C
:103F600009F087CF6E9FD0016F9FB00D1124A85824
:103F7000B94F9C91911109C06BCE6E9FD0016F9F7C
:103F8000B00D1124A858B94F9C91943009F071CF0D
:103F90005FCE6E9FD0016F9FB00D1124A858B94F0E
:103FA0009C91923009F454CE943009F46ECE61CFD6
:103FB0006E9FD0016F9FB00D1124A858B94F9C91EE
:103FC000943009F462CE963009F45FCE923009F055
:103FD00050CF3ECE843009F4D3CD853009F0F5CCF6
:103FE000929FF001939FF00D1124E858F94F8081C2
:103FF000882309F479CE843009F0E7CC75CE929FFE
:10400000F001939FF00D1124E858F94F808196CE6E
:10401000929FF001939FF00D1124E858F94F808191
:10402000823009F461CE863009F4AACD8111CDCC5D
:10403000A7CD4FEF0E949C15D82EFFEF8F1761F18F
:1040400096E0899FA0011124BA016B58794F7B013A
:10405000FB01808187508F30F8F48A0109571A4F8D
:10406000F801EF50FF4F80818330B0F464E08D2D74
:104070000E940F1B882309F4E5CB6D2DC7010E9418
:10408000E116F70182818F5F8283C7010E94B41B12
:10409000F801811187CC8ACCE0914B0848E0E49F7D
:1040A000F0011124E55DF74F83812D2F220F280F9A
:1040B00092818C2F880F890F60915208062E000C78
:1040C000770B40915108042E000C550B022F10E085
:1040D000061B170BA82FB0E0A41BB50B92E1909F15
:1040E000F001919FF00D1124E957FA4FEA0FFB1FE1
:1040F000E285EF3F89F0AE2FB0E096E0E99FF00156
:104100001124EB58F94F3081323009F48DC008F09A
:1041100065C0313009F476C08C1B2D1B30E0261BA6
:10412000370BEFEFE80F6E2F70E0641B750B92E119
:10413000929FF001939FF00D1124E957FA4FE60F7B
:10414000F71F12851F3FA1F0E12FF0E066E0169FF8
:10415000E0011124CB58D94F9881933009F4A8C0BD
:1041600008F07AC0913009F48CC0923009F495C0FF
:104170008F5F90E0841B950B62E1629FA001639FBB
:10418000500D112449575A4F840F951FFC01128579
:104190001F3F09F41ACC212F30E096E0199FE0016F
:1041A0001124CB58D94F8881833009F4AFC008F06F
:1041B00090C0813009F49EC0823009F006CC929FF5
:1041C000F001939FF00D1124E858F94F808184305D
:1041D00009F43ECD863009F458CDF7CB333099F150
:1041E000353009F099CF9A9FF0019B9FF00D112473
:1041F000E858F94F9081923009F48ECF963009F04B
:1042000021CB8ACF9A9FF0019B9FF00D1124E85893
:10421000F94F9081943009F47FCF963009F47CCF28
:10422000923009F00FCB78CF9A9FF0019B9FF00D51
:104230001124E858F94F9081923009F46DCF9430F1
:1042400009F000CB69CF9A9FF0019B9FF00D1124DC
:10425000E858F94F9081F3CF943009F491CC953020
:1042600009F086CF6E9FD0016F9FB00D1124A85822
:10427000B94F9C91923009F437CD963009F078CF40
:1042800033CD6E9FD0016F9FB00D1124A858B94F48
:104290009C91923009F06CCF27CD6E9FD0016F9F1B
:1042A000B00D1124A858B94F9C919111F2CF68CC50
:1042B0006E9FD0016F9FB00D1124A858B94F9C91EB
:1042C000923009F45DCC943009F40ECD911150CFA9
:1042D00057CC843009F4D9CC853009F076CB929F45
:1042E000F001939FF00D1124E858F94F808182303E
:1042F00049F4AECC929FF001939FF00D1124E85841
:10430000F94F8081863009F060CBA2CC929FF001FA
:10431000939FF00D1124E858F94F8081843009F4FF
:1043200097CC863009F4B1CC81114FCBAECCE09163
:104330004B0848E0E49FF0011124E55DF74F9381BD
:104340008D2F880F890F92812C2F220F290F4091DA
:104350005208042E000C550B60915108062E000CDB
:10436000770B082F10E0041B150BA22FB0E0A61B43
:10437000B70B92E1909FF001919FF00D1124E95746
:10438000FA4FEA0FFB1FE285EF3F89F0AE2FB0E056
:1043900096E0E99FF0011124EB58F94F308132305B
:1043A00009F487C008F060C0313009F471C08D1B7A
:1043B0002C1B30E0261B370B6FEF680F70E0641B7F
:1043C000750B92E1969FF001979FF00D1124E9572C
:1043D000FA4FE20FF31F12851F3FA1F0E12FF0E02B
:1043E00066E0169FE0011124CB58D94F9881933095
:1043F00009F49FC008F075C0913009F483C0923071
:1044000009F48CC08F5F90E0841B950B62E1689F7C
:10441000A001699F500D112449575A4F240F351F91
:10442000F90112851F3F09F4D0CA212F30E096E030
:10443000199FE0011124CB58D94F8881833009F4AA
:10444000AAC008F088C0813009F49AC0823009F00F
:10445000BCCA929FF001939FF00D1124E858F94FC8
:10446000808181114FCF11CC333091F1353009F07B
:104470009ECF9A9FF0019B9FF00D1124E858F94FB1
:104480009081992309F493CF943009F0DBC98FCF41
:104490009A9FF0019B9FF00D1124E858F94F9081ED
:1044A000943009F484CF963009F481CF9111CAC9B0
:1044B0007ECF9A9FF0019B9FF00D1124E858F94F91
:1044C0009081943009F473CF963009F0BBC96FCF57
:1044D0009A9FF0019B9FF00D1124E858F94F9081AD
:1044E000F3CF943009F44CCB953009F08BCF6E9F0D
:1044F000D0016F9FB00D1124A858B94F9C91911114
:1045000009C0F2CB6E9FD0016F9FB00D1124A85847
:10451000B94F9C91943009F075CFE6CB6E9FD001D6
:104520006F9FB00D1124A858B94F9C91923091F70C
:1045300027CB6E9FD0016F9FB00D1124A858B94FA3
:104540009C91943009F41CCB963009F4CDCB923079
:1045500009F058CF15CB843009F497CB853009F09A
:1045600034CA929FF001939FF00D1124E858F94F3F
:104570008081882309F46CCB843009F026CA68CB8B
:10458000929FF001939FF00D1124E858F94F80811C
:1045900081111BCA5DCB929FF001939FF00D1124F6
:1045A000E858F94F8081823009F46FCB863009F0EA
:1045B000BBCE4ECB6F927F928F92CF92DF92EF92D3
:1045C0000F931F93CF93DF9350915108409152085E
:1045D000E0914B0898E0E99FF0011124E55DF74F69
:1045E00090915A08992309F488C02381243008F453
:1045F00084C090914E08A92FA550BB0B99502A1743
:104600001B0614F49CEF920F9093520820915908C6
:10461000222309F474C03281373008F470C020912D
:104620004D08E22FEA50FF0B21513E171F0614F4EC
:1046300029EF230F20935108811105C0521303C0A5
:10464000491709F45EC090E080E0FC01EB59F84F97
:104650002BE01082215072962111FBCF01968231FE
:10466000910599F740914C0863E07AE280E00E945E
:104670002E183B01882E20914D08309152083203AC
:1046800090011124C09051080C2C000CDD08EE089C
:10469000F2E1CF0ED11CE11CC20ED31EE11C37FD8E
:1046A000EA94C60CD71CE81CD0E0C0E002E110E0A0
:1046B0008E2DB6010E943C18FE01EB59F84F98016F
:1046C0000E942E15819321503040D1F70E9473171C
:1046D00080914D08C80ED11CE11C6296C63CD105E4
:1046E00039F7DF91CF911F910F91EF90DF90CF902D
:1046F0008F907F906F900C940E1390E085CF20E008
:1047000099CFDF91CF911F910F91EF90DF90CF90D4
:104710008F907F906F900895CF92DF92EF920F93DA
:104720001F93CF93DF9340914C0863E07AE280E0DF
:104730000E942E186B01E82E0E943C180E942E1534
:1047400080934D080E942E1580934E08CBE2D8E04E
:104750000E942E158A830E942E158B830E942E158F
:104760008883289688E0CB34D80791F70E942E15CD
:10477000809353080E942E15809354080E942E1592
:1047800091E0811101C090E0909359080E942E158C
:1047900091E0811101C090E090935A080E94731734
:1047A0008FE7809351088093520881E00E94DA22BB
:1047B000E5E7F6E01082138214821582369687E0D0
:1047C000E536F807B9F710922D0910922E0960917D
:1047D0004D0880914E08689FB0011124072E000CEF
:1047E000880B6E5E7F4F8F4F6C0D7D1D8E1D0E945E
:1047F0003C180E942E15E82ED12C86E0C82EEE2003
:1048000061F1DC9CE00111248E010B58194FF80175
:10481000E0820E942E15F80181830E942E15F80176
:1048200082830E942E15C957DA4FFE01EF50FF4FC9
:1048300080830E942E15CE50DF4F8883F6E0EF1262
:1048400007C0F801818180935708828180935808BE
:104850000E942E15E82ED394D2CF0E947317DF91B9
:10486000CF911F910F91EF90DF90CF900C940E138A
:104870000F931F93CF93DF93EA0189010E943C18A5
:10488000FE010150104021F00E942E158193F9CFB6
:104890000E9473178083DF91CF911F910F9108952C
:1048A00059980E94E217599A089586E00C94502472
:1048B00030E73CBDDC0130E8439FC0011124A80F64
:1048C000B91F5E91352F6111372F3C93C89500C0F9
:1048D00052235EBD0197A9F704D003D030E50DB493
:1048E0003CBD089580917605882329F081508093FE
:1048F000760581E0089580E00895E0914B0898E006
:10490000E99FF0011124E55DF74F96E09083409117
:104910005108E0914B08A8E0EA9FF0011124E55D01
:10492000F74F909159089923B1F022813FEF320F50
:10493000373088F090914D08A92FAA50BB0B9151A8
:104940003A171B0614F498EF920F491731F088E0DC
:1049500080935508089590E0F8CF98EF9583E09103
:104960004B08B8E0EB9FF0011124E55DF74F880F8D
:1049700087830895E0914B0898E0E99FF0011124A6
:10498000E55DF74F94E0908340915208E0914B0829
:10499000A8E0EA9FF0011124E55DF74F90915A08D5
:1049A0009923B1F0238131E0320F343088F09091B7
:1049B0004E08A92FA550BB0B99503A171B0614F4AB
:1049C0009DEF920F491731F088EF809356080895B4
:1049D00090E0F8CF98E09683E0914B08B8E0EB9F29
:1049E000F0011124E55DF74F880F87830895E0916A
:1049F0004B0898E0E99FF0011124E55DF74F92E044
:104A0000908340915108E0914B08A8E0EA9FF001A3
:104A10001124E55DF74F909159089923B1F0228157
:104A200031E0320F373088F090914D08A92FAA500D
:104A3000BB0B91513A171B0614F49AEF920F4917CA
:104A400031F088EF80935508089590E0F8CF98E012
:104A50009583E0914B08B8E0EB9FF0011124E55DF0
:104A6000F74F880F87830895E0914B0898E0E99FFE
:104A7000F0011124E55DF74F108240915208E0915A
:104A80004B08A8E0EA9FF0011124E55DF74F9091F3
:104A90005A089923B1F023813FEF320F343088F068
:104AA00090914E08A92FA550BB0B99503A171B06A1
:104AB00014F49BEF920F491731F088E08093560869
:104AC000089590E0F8CF98EF9683E0914B08B8E016
:104AD000EB9FF0011124E55DF74F880F8783089560
:104AE00080915D0580935E059FB19095907F669B58
:104AF00098601C9B946090935D0580958923089530
:104B00000E9461158130A9F0D8F0823079F480914B
:104B10008905803128F48E3030F48B3021F00895EF
:104B2000803129F008958BE08093880508958CE00A
:104B3000FBCF809189058E508230C0F78FE0F4CF93
:104B40008EE0F2CF109271001092C10010925F05BA
:104B5000109272050895EF92FF920F931F93CF93D7
:104B6000DF9380915F05882381F080916C0581112E
:104B70000CC060916D0570916E0580916F052DE000
:104B800030E040E655E00E94382480917205882389
:104B9000C1F080915105811114C06091730570912D
:104BA00074058091750524E030E04EE455E00E94E4
:104BB000382480914F0590915005892B11F4109263
:104BC000720504E0C0E6D5E0F12CE12CFE01119164
:104BD00081919191EF01892B11F40E94A225812FDF
:104BE0008695E81AF108015089F7F0925C05E09289
:104BF0005B05DF91CF911F910F91FF90EF9008958A
:104C0000CF9390918F05992369F190917105992324
:104C100049F190E0FC01EE0FFF1FE80FF91FE65D80
:104C2000FE4F80819181A2818093730590937405DA
:104C3000A0937505C1E0C09372050E94AB258091D9
:104C4000710081110FC080E094E0909399008093EF
:104C500098001092950010929400C093C10082E0D9
:104C600080937100CF91089520914C08E22FF0E0DD
:104C7000E95AF94F81E08083809150084AE0849F8F
:104C8000302D112490E00196489FB001499F700D8E
:104C90001124832F90E086179707ECF4895A994FD7
:104CA000FC0180818823E1F03F5FF3CF80918A058A
:104CB0008F5F80938A052F5F20934C080E948C237E
:104CC00081E28093880581E0809387050E947917AF
:104CD00082E00C94002681E00E94002683E10BC054
:104CE000822F6AE00E94AF38993001F781E00E947C
:104CF000002680918A0580938805089580915F053C
:104D0000811104C080917205882341F080914A0589
:104D10008F5F833020F480934A0581E008951092DC
:104D20004A050E94AB2580916C05882399F081503B
:104D300080936C0581110EC080916D0590916E0578
:104D4000A0916F050D96A11D80936D0590936E0542
:104D5000A0936F05809151058823F9F281508093CB
:104D600051058111DACF8091730590917405A0915E
:104D700075050496A11D8093730590937405A09307
:104D80007505CBCFCF938093700580918E058823D6
:104D900029F180917105882309F10E94A2258DE5F2
:104DA0009AE2A0E080936D0590936E05A0936F0545
:104DB00010926C05C1E0C0935F050E947E2680E0E2
:104DC00094E090939900809398001092950010922F
:104DD0009400C093C10082E080937100CF91089548
:104DE0004F925F926F927F928F929F92AF92BF92FB
:104DF000CF92DF92EF92FF920F931F93CF93DF93A7
:104E000000D0CDB7DEB7A9E4B1E03A01862EE02F9D
:104E1000BB24482E96959695969541E0E1FC44E09A
:104E2000E0FC440FE2FC42955FEF549F6001C094A8
:104E3000D094F594E794F594E794F594E7943E2D97
:104E40003F3F4CF43095931B20FD330F389F600C8F
:104E5000711C8B1C3FEF17FF0BC0400E20FF02C0E0
:104E6000000F111F601A710A8B0817FD8394EE273B
:104E700050E835030E0EA00DB11D5E1B451608F05F
:104E8000452E57E0531B591714F4952FB39450E84F
:104E90005419682F772721FD02C06419770B20FF72
:104EA00002C0660F771F1124A32E211152C0F301F7
:104EB000292F31158CF4A058BF4F142D8591849F54
:104EC0000C910D2101290D931A95C1F711242A95F2
:104ED000A419B109E60FF71F2223E9F0CF93DF935E
:104EE000ED01C058DF4F142D8591849F0C910C214A
:104EF00000290D9308810D21012909931A95A1F725
:104F00001124A50FB11DC50FD11DE60FF71F2A955E
:104F100051F7DF91CF91BB2041F08591849F0C9197
:104F20000C2100290D934A94C1F711240F900F9082
:104F3000DF91CF911F910F91FF90EF90DF90CF9075
:104F4000BF90AF909F908F907F906F905F904F90A9
:104F50000895213009F050C0F301292F3115B4F420
:104F6000A058BF4FF42C85910591849FC001049FE8
:104F70008001EC901095E122E92AED92FA9499F7DC
:104F800011242A95A419B109E60FF11D222319F164
:104F9000CF93DF93ED01C058DF4FF42C859105913D
:104FA000849FC001049F8001EC900095E022E82AD4
:104FB000ED92E8801095E122E92AE992FA9471F7DE
:104FC0001124A50FB11DC50FD11DE60FF11D2A95A6
:104FD00021F7DF91CF91BB2069F085910591849FE6
:104FE000C001049F8001EC900095E022E82AED9238
:104FF0004A9499F711249ACF00908105700C009083
:105000008205801C19C0599833E03EBD660E771E9C
:10501000811C5524841509F053940CD08EBC07D004
:105020007EBC05D06EBC03D01EBC03D00895C895CD
:105030000000C895C8950895661A770A8108E3DFCD
:10504000A1141CF0992371F564C0A058BF4FE42C43
:1050500020FD0CC00EB51EBC049F9C909D20912885
:105060009D92C89500C0EA94A9F711C00EB51EBC68
:10507000049F8001DEDFCEB41EBCC49E60019C9004
:10508000D0949D20912A9D92C895EA9479F7112495
:10509000A419B1099A9509F45CC0552019F00DB412
:1050A000599AB1DFFD01E058FF4FE42C20FD0EC0FE
:1050B0000EB51EBC049F9C909C2090289D929080D1
:1050C0009D2091289192EA9499F716C00EB51EBCC6
:1050D000049F80019C90D080AEDF00C0CEB41EBC87
:1050E000C49E00949020902A9D921094D120D12AA1
:1050F000D1920000EA9451F71124A50FB11D9A95A1
:1051000061F6BB2031F1552021F00DB4599A7BDFB7
:10511000C89520FD0CC00EB51EBC049F9C909C2021
:1051200090289D92C89500C04A94A9F712C00EB568
:105130001EBC049F80017DDF9EB51EBC949F902DF8
:105140009C9090959922902A9D92C8954A9479F7BF
:10515000C8951124599A0DB4E9CE6F927F928F921F
:10516000AF92CF92DF92EF92FF920F931F9380380E
:1051700091050CF03AC0603471050CF036C0A42FD4
:10518000B0E0FD01E80FF91F1E161F060CF02DC040
:10519000E22FF0E03F01660E771E161417040CF0A4
:1051A00024C03701802E7B018C019E2F8827842B01
:1051B0009B2BC114D104A1F0269526952695A0FC21
:1051C000220F249FF001ED9D700C811CFC9D700C42
:1051D000811CFD9D800CEC9D600C711C1124811CB8
:1051E0002A2D682DA3010E94F0261F910F91FF9098
:1051F000EF90DF90CF90AF908F907F906F90089559
:105200007F928F929F92AF92CF92DF92EF92FF9216
:105210000F931F93CF93DF93EC014B016901E42EB1
:10522000842FB9010E943C180E942E15782E0E94EE
:1052300073174E2D96012E5F3F4F4F4F93E0A92ECF
:1052400068017901042F282F472DB401CE010E9457
:10525000AD28DF91CF911F910F91FF90EF90DF90DC
:10526000CF90AF909F908F907F9008957F928F9274
:105270009F92AF92CF92DF92EF92FF920F931F9384
:10528000CF93DF93EC014B016901E42E842FB90128
:105290000E943C180E942E15782E0E9473174E2DE6
:1052A00096012E5F3F4F4F4F92E0A92E6801790182
:1052B000042F282F472DB401CE010E94AD28DF9185
:1052C000CF911F910F91FF90EF90DF90CF90AF9013
:1052D0009F908F907F900895AF92CF92DF92EF9240
:1052E000FF920F936901FA01459125917F01FF0F0C
:1052F000000BAA24A3940E94AD280F91FF90EF9079
:10530000DF90CF90AF900895AF92CF92DF92EF925F
:10531000FF920F936901FA01459125917F01FF0FDB
:10532000000BA12C0E94AD280F91FF90EF90DF9011
:10533000CF90AF9008952F923F924F925F926F92CD
:105340007F928F929F92AF92BF92CF92DF92EF9215
:10535000FF920F931F93CF93DF93CDB7DEB76E9776
:105360000FB6F894DEBF0FBECDBF28EF3FEF3A8BEC
:10537000298B188E1F8AAE014F5F5F4F5E874D8766
:1053800022E130E0F901E61BF109FE8FED8FA82E36
:10539000B12C9E01275F3F4F388B2F873F89398F74
:1053A000ED85FE8528E011922A95E9F781E00E94BB
:1053B00034158A8F39893B8F81E00E944B154989CA
:1053C000481B19861A861B861C8658EF5C8B512C4D
:1053D0001B8A92E16F89788D969F9001979F300D7F
:1053E0001124F901E957FA4FFE8BED8B842E440FFF
:1053F0009908FC88FA8DFF1A252D30E04D8D5E8DC1
:10540000241735070CF0D2C3ED89FE89E50DF11D97
:1054100057FCFA95E252FE4F8081ED89FE89E20F3A
:10542000F31FE2845FEFE51252C46B89611112C071
:10543000882309F463C18A3008F078C4863008F004
:1054400065C4843009F463C008F097C0813008F463
:1054500055C15CC46B8961506B8BE7FC4FC12E2D2D
:1054600030E056E0E59ED0011124AB58B94F8C9145
:10547000EFEFE80FE53108F041C1F0E0EE5BF54DEC
:105480000C94CF380F2BE52B502C802CD12C042DD5
:10549000182D182D182D182D182D182D182D182DE4
:1054A000182D182D182D182D182D182D182D833165
:1054B000A8F48B3008F48AC0950143E0849F200D46
:1054C000311D1124215231094BE852E2B4018F2DD4
:1054D0000F2C000C990B0E946C2917C0823341F0ED
:1054E000833309F0BACF850120EC38EA40E004C0EC
:1054F000850122E037EA40E0B4018F2D0F2C000C2B
:10550000990B0E94362900E8502E1B8AA6CF81E015
:10551000850D2C5F3F4F482F45198217130609F060
:105520006CF4ED89FE89E80FF11D87FDFA95E252D2
:10553000FE4F9081943011F48F5FEDCFCF2C0F2C64
:10554000000CDD08413041F4950143E355E2B4011C
:10555000C6010E948429D9CF8FEF840F8B8B4250D4
:1055600062EC75EF82E00E942E189B01482F8501A6
:10557000B401C6010E94362970CF81E0850D2C5FF1
:105580003F4F482F45198217130609F06CF4ED8937
:10559000FE89E80FF11D87FDFA95E252FE4F9081DA
:1055A000953011F48F5FEDCFCF2C0F2C000CDD0860
:1055B000413021F4950149E155E2C9CF9FEF940FA5
:1055C0009B8B42506EEC75EF82E0CDCF81E0850D74
:1055D0002C5F3F4F482F45198217130609F06CF4D2
:1055E000ED89FE89E80FF11D87FDFA95E252FE4F25
:1055F00090819A3011F48F5FEDCFCF2C0F2C000CDF
:10560000DD08413021F495014FEF54E2A0CFEFEFD8
:10561000E40FEB8B42506AED75EF82E0A4CF86E099
:10562000829F8001839F100D11240858194FF801A3
:1056300040816AE175EF82E00E942E181B01482E1E
:10564000F8012081822F90E0FC01ED57FD4DE490A0
:10565000FC01E558FD4DC490283008F04FC0FC0116
:10566000E15CF44D0C2C000CDD082C89022F220F7C
:10567000110B0E2C000CFF0881E00C94CF38472B47
:10568000632B472B632B472B632B472B632B0E94EA
:105690004B15E989FA89E81BF10987FDF395CE0ED0
:1056A000DF1E81E00E943415A801481B510987FDC7
:1056B0005395CA018501442D9101B6018E0D9F1DA0
:1056C0000E9436291BC00E944B15E989FA89E81B04
:1056D000F10987FDF395CE0EDF1E81E00E9434159F
:1056E000B801681B710987FD7395CB018501442DB5
:1056F0009101B6018E0D9F1D0E9400293090510826
:10570000209152082C8F20904B081DE2C12E18E0EA
:10571000D12E10E000E0F60180818319581247C0B5
:105720008181FC8D8F1B298D821341C0E9E0F0E05F
:10573000EC0FFD1FE00FF11F31E03083F6017380A5
:105740004480F8EF7F164CF02FEF27150CF01EC2A7
:105750008FEF870D883008F41DC258EF45164CF0C6
:105760006FEF64150CF01AC28FEF840D883008F4C7
:1057700019C266246394201201C0612C862D0E94F8
:1057800034157801EE0CFF1CE1E0F0E0EC0FFD1F9A
:10579000EE0EFF1EFC897F0E781AF7017082862DAF
:1057A0000E944B159B8D940D981BF70191830F5F01
:1057B0001F4FF8E0CF0ED11C0430110509F0ABCF1C
:1057C00053942C89285F2C8B14CE86E0829FF001A5
:1057D000839FF00D1124E858F94F4081433019F0B0
:1057E00020F4423030F481E005C08BEF840F833029
:1057F000D0F380E0042F10E0F801ED58FD4DE49067
:1058000005591D4DF8010491FC89CF2EFF0FDD08CD
:10581000002E000C110B0E2C000CFF08882301F148
:1058200062E375EF82E00E942E181B01482E81E092
:105830000E944B1569887A88681A710887FD7394ED
:10584000600E711E81E00E9434159601281B3109FB
:1058500087FD3395C9018501442D9101B3014ACFDC
:105860006AE475EF82E00E942E181B01482E81E049
:105870000E944B1569887A88681A710887FD7394AD
:10588000600E711E81E00E943415A601481B51096B
:1058900087FD5395CA018501442D9101B3010ECFB7
:1058A00086E0829FF001839FF00D1124E858F94FA4
:1058B00040814430F8F08BEF840F8330D8F080E0E3
:1058C000042F10E0F801ED59FD4DE490055A1D4DEF
:1058D000F8010491FC89CF2EFF0FDD08002E000C8B
:1058E000110B0E2C000CFF08882331F062E675EFD7
:1058F00082E099CF81E0E4CF6AE775EF82E0B3CF31
:1059000086E0829FF001839FF00D1124E858F94F43
:10591000E081E83008F0F2CEF0E0EA56F34D5C8921
:10592000052F550F110B81E00C94CF389E2CB82C0D
:105930009E2CB82C9E2CB82C9E2CB82C0E944B155B
:10594000F82E81E00E94341569897A896F197109EE
:10595000F7FC739568507109F801E81BF10987FDA0
:10596000F395CF0185012CE83EEC40E00897C4CECA
:105970000E944B15F82E81E00E94341569897A89BE
:105980006F197109F7FC7395685071099801281B0C
:10599000310987FD3395C90185012EEC30ED40E0DA
:1059A000E5CF86E0829FF001839FF00D1124E85837
:1059B000F94F4081433019F020F4413031F481E057
:1059C00005C04530E1F34730D1F380E0042F10E00B
:1059D000F801ED5AFD4DE490055B1D4DF801049171
:1059E000FC89CF2EFF0FDD08002E000C110B0E2CB2
:1059F000000CFF08882321F06AEA75EF82E013CFDC
:105A000062E975EF82E02FCF80918305887023E0F3
:105A100030E0843010F030E020E02A0D3B1D49E8F2
:105A200051E2B4018F2DFF0C990B0E946C2966CEB8
:105A3000875090E0FC01E45AFA4D4491FC01E35B8D
:105A4000FA4D049156E0529FC001539F900D1124CE
:105A50008858994FFC016081633009F44FCE8F2D37
:105A6000FF0C990B013061F4413051F49501F3E0E2
:105A70006F9F200D311D112445E658E0B401D5CFAC
:105A800030915108152D130F20915208398D230F95
:105A900012965C911297251330C0950153E0659FD3
:105AA000200D311D1124013019F443ED57E0E6CFEC
:105AB00011965C91151308C0423018F041E457E08C
:105AC000DDCF4FE156E0DACF652F600F7727771FE4
:105AD000FB0131971E171F0644F4423018F04DE8C1
